:1000000071C000008EC000008CC000008AC00000DB
:1000100088C0000086C0000084C0000082C00000CC
:1000200080C000007EC000007CC000007AC00000DC
:1000300078C0000076C0000074C0000072C00000EC
:1000400070C000006EC000006CC000006AC00000FC
:1000500068C0000066C0000064C0000062C000000C
:1000600060C000005EC000005CC000005AC000001C
:1000700058C0000056C0000054C0000052C000002C
:1000800050C000004EC000004CC000004AC000003C
:1000900048C0000046C0000044C0000042C000004C
:1000A00040C000003EC000003CC000003AC000005C
:1000B00038C0000036C0000034C0000032C000006C
:1000C00030C000002EC000002CC000002AC000007C
:1000D00028C0000026C0000024C0000022C000008C
:1000E00020C0000011241FBECFEFD1E2DEBFCDBF84
:1000F00000E00CBF12E0A0E0B2E0E4E9FDE000E0C7
:100100000BBF02C007900D92A433B107D9F724E0CA
:10011000A4E3B2E001C01D92AE30B207E1F789D18D
:1001200037C66ECF181619066CF420E030E0EFE900
:10013000FFE03197F1F700C000002F5F3F4F281715
:100140003907A9F70895CF93DF93EB01259A249AF5
:100150001816190644F42D9A2C98E4DF2D982C9A41
:10016000CE01E0DF0AC02D982C9A919581959109D6
:10017000D9DF2D9A2C98CE01D5DF2D982C98DF91C0
:10018000CF9108950F931F93CF93DF939C018B0121
:10019000E1E0F1E09081906290839081906490839F
:1001A000121613069CF4C2E0D1E088818F7D88830B
:1001B000888180648883C901B5DF888180628883F3
:1001C00088818F7B8883C801ADDF15C0C2E0D1E094
:1001D00088818062888388818F7B8883882799279C
:1001E000821B930B9FDF88818F7D88838881806449
:1001F0008883C80197DFE2E0F1E080818F7D808312
:1002000080818F7B8083DF91CF911F910F91089523
:10021000269A882311F02E9A08952E98089508950D
:1002200008952F923F924F925F926F927F928F929A
:100230009F92AF92BF92CF92DF92EF92FF920F9375
:100240001F93CF93DF9380917902813051F481E83D
:100250008093FE0288E090E09093800380937F0378
:1002600038D280917902853079F585E88093FE0255
:100270001092800310927F03E7E7F2E0C581D0E09F
:10028000CF57D109068110E0648170E0238130E00E
:100290002F573109C901880F991F220F331F220FD1
:1002A000331F220F331F820F931F4DDFCE01880FA4
:1002B000991FCC0FDD1FCC0FDD1FCC0FDD1FB80148
:1002C0008C0F9D1F5FDF05D2809179028A30C9F4BF
:1002D000C7E7D2E01C8127E043E060E08B81DDD0FE
:1002E000812F90E0EED0EEEFF2E02A8120582083BB
:1002F00022E030E03093800320937F039183828358
:10030000E8D1809179028B3081F4B5D0EEEFF2E044
:10031000209179022058208322E030E0309380033E
:1003200020937F0391838283D4D1809179028C3092
:1003300009F06AC007E712E0D8011496CC9127E0D3
:1003400043E060E080E0A9D0D0E0CE01BAD0382E02
:10035000292E27E043E060E081E09FD0CE01B1D0BC
:10036000582E492E27E043E060E082E096D0CE018F
:10037000A8D0782E692E27E043E060E083E08DD09E
:10038000CE019FD0982E892E27E043E060E084E0E4
:1003900084D0CE0196D0B82EA92E27E043E060E0AD
:1003A00085E07BD0CE018DD0D82EC92E27E043E04A
:1003B00060E086E072D0CE0184D0F82EE92E27E0EE
:1003C00043E060E087E069D0CE017BD0EEEFF2E061
:1003D000D80112962C912058208320E130E03093F0
:1003E000800320937F03218232824382548265827C
:1003F000768287829086A186B286C386D486E58679
:10040000F6869787808B65D1DF91CF911F910F91F1
:10041000FF90EF90DF90CF90BF90AF909F908F9024
:100420007F906F905F904F903F902F900895F9CEFE
:10043000089599E288E10FB6F894A895809360003A
:100440000FBE9093600081E0E3DE63E070E080E047
:10045000E9D383D083E092E0F9D047E152E06CE049
:100460008FE05ED043E252E068E08BE159D080E05B
:1004700007D3A895FCCFEAE7F0E080818064808311
:10048000808184FFFDCF209178008091790090E0F9
:10049000982F8827820F911D0895206820937A0055
:1004A00098E090937B0090E2699FB0011124862B25
:1004B00090E4499FA0011124482B40937C00DBCF9E
:1004C0000895CF92DF92EF92FF920F931F93CF93F5
:1004D000DF938C01181619067CF4C0E0D0E0C12C23
:1004E000D12C7601C8DFC80ED91EE11CF11C219663
:1004F000C017D107B9F703C0C12CD12C76019801E0
:10050000110F440B550BC701B60120D4C901DF916F
:10051000CF911F910F91FF90EF90DF90CF900895B2
:10052000CF93DF936623B1F0E7E5F2E0C42FD52F38
:10053000A82FB0E0A95ABD4F70E0695A7D4F90E2F4
:1005400080818E3108F4908389918D933196E617DE
:10055000F707B1F7DF91CF9108958F929F92AF92F5
:10056000BF92EF92FF920F931F93CF93DF930FED04
:100570001FEF23E030E00F2EFCE2EF2EF2E0FF2E23
:10058000F02DC3E3D2E04801590181E0881A9108B7
:10059000A108B108D701B501A4016BBFFA01979179
:1005A0008D91981308C04F5F5F4F6F4F7F4FAC170F
:1005B000BD0799F735C0950184018FEF88168FEE3E
:1005C000980683E0A806B104F1F680E026C02BBFB0
:1005D000F80147914D93B901A801405F5F4F6F4FFC
:1005E0007F4F6BBFFA01479149930F5F1F4F2F4F0A
:1005F0003F4FA817B90759F7A7E3B2E027E432E065
:10060000ABBEF40187918D938FEF881A980AA80AE0
:10061000B80AA217B307A1F781E0809336020BC096
:10062000015F1F4F2F4F3F4FA7E5B2E0C7E4D2E075
:1006300087E692E0CCCFDF91CF911F910F91FF9091
:10064000EF90BF90AF909F908F900895CF93DF93DE
:10065000DC01E7E5F2E027E732E090E2EF0180819C
:100660008E3108F490838D9188833196E217F307D9
:10067000A9F7DF91CF910895CF93C82F682F80916C
:1006800035020CD320910C0430910D042C27822FBD
:1006900082958227082E869586958025082E869538
:1006A00080258770022E232F869507948795302DFD
:1006B0002827069487953025282730930D0420930A
:1006C0000C04C83921F460E080913502E7D2CF9163
:1006D0000895EF92FF920F931F93CF93DF93809132
:1006E00035029DDD60E080913502D8D260E08091D6
:1006F0003502D4D268E980913502D0D263E080918E
:100700003502CCD28FEF9FEF90930D0480930C04B1
:100710008091FD02B1DF8091FC02AEDF8091FE028C
:10072000ABDF80917F0390918003892BA9F00FEFBD
:1007300012E0C0E0D0E00F2EFFE7EF2EF3E0FF2E37
:10074000F02DF80181918F0197DF2196F7018081CB
:100750009181C817D907A8F3C0910C0480910D04AA
:100760008BDF8C2F89DF68E98091350297D264E0B6
:100770008091350293D260E0809135028FD260E0A3
:10078000809135028BD260E08091350287D28091D2
:10079000350246DDDF91CF911F910F91FF90EF90D1
:1007A00008950F931F93CF93DF931092FE02109240
:1007B000800310927F03809179028F3F51F5E7E724
:1007C000F2E02481858166813781A7E4B2E0EFEF12
:1007D000F2E04FE053E09D9129278927260F830FF0
:1007E0009193E417F507B9F790E030E1239F800D6E
:1007F000911D11249595879595DC8AEA8093FE02D8
:1008000080E190E09093800380937F0362DF81E03A
:1008100032C18E3F09F050C067E472E04FEF52E002
:1008200027E532E0CFE0D3E0A7E6B2E00FE113E046
:1008300080E1FB019191BF01FA019193AF01F901B0
:1008400091919F0199939D91F80191938F0181500E
:1008500081F7EEEFF2E082E381AB84E382AB8AE4DE
:1008600083AB8EE684AB81E385AB86E386ABA7E3FF
:10087000B2E0E5E3F3E025E433E08D918193E21704
:10088000F307D9F786E58093450381E38093460318
:100890008EE28093470395E3909348038093490346
:1008A00080E380934A0386E590E0909380038093F1
:1008B0007F030FDF81E0DFC08D3F79F5E7E7F2E0EE
:1008C000638970E0762F66278489680F711DEAE7D7
:1008D000F2E0A7E4B2E02AE832E041E050E0919192
:1008E0008D919813452FE217F307C9F7413039F47A
:1008F0007093FD026093FC02ECDE81E0BCC080914D
:10090000FC029091FD026817790709F0A9C01092C6
:10091000FD021092FC0281E0AEC08C3F19F52091DF
:10092000FA023091FB022115310509F49BC0C9017F
:1009300001979093800380937F0340917A024093C4
:10094000FE02892B61F0EBE7F2E0AFEFB2E0265850
:100950003D4F819181508D93E217F307D1F7B9DEB6
:1009600081E089C08B3F01F5B4DE80917A0281304D
:1009700041F40C940000809179028A3FF1F080E00C
:100980007AC0823019F40D9400F870C08F3F09F0DE
:100990006DC09DE088E10FB6F894A8958093600043
:1009A0000FBE90936000FFCF809179028A3F09F0DB
:1009B0005BC080917A02813091F5E7E7F2E08185B2
:1009C00094B1282F2095322F392397819823932B88
:1009D00094B995B1292390858923822B85B9848583
:1009E00097B1282F2095322F392392859823932B66
:1009F00097B998B1292393858923822B88B9878554
:100A00009AB1282F2095322F392395859823932B3F
:100A10009AB99BB1292396858923822B8BB9809122
:100A20007A028230A1F484B1EEEFF2E0858385B1E1
:100A3000868383B1878387B1808788B1818786B1B8
:100A400082878AB183878BB1848789B1858780E16A
:100A500090E09093800380937F033BDE81E00BC0A6
:100A600081E009C080E007C080E005C08091790284
:100A70008A3FA9F280E0DF91CF911F910F910895F5
:100A8000CF93DF93C82F80933502CADB8091350264
:100A90002DD1882309F4C3C08091350241D1D82FCC
:100AA00080918103909182038838910548F087E80E
:100AB00090E0909382038093810381E0809383038D
:100AC00080913402883909F097C0D130A9F018F02C
:100AD000D230C9F0A2C080918103909182039C0121
:100AE0002F5F3F4F3093820320938103FC01EC572B
:100AF000FC4F28E9208391C0109282031092810359
:100B0000109283038AC080918303811186C0A091D3
:100B10008103B0918203A530B10508F47EC0BD0108
:100B20006250710919F1E4E8F3E0AB014C575C4FF6
:100B30002FEF3FEF91912927922F92959227092E1F
:100B4000969596959025092E969590259770022E4C
:100B5000232F969507949795302D292706949795DE
:100B600030252927E417F50729F702C02FEF3FEFBB
:100B7000FB01EC57FC4F808190E0982F8827FD0106
:100B8000ED57FC4F4081840F911D8217930709F0A8
:100B900044C0E4E8F3E0808190E0982F8827218129
:100BA000820F911D009739F02091FC023091FD02D7
:100BB0008217930791F5E7E7F2E0918380838091B4
:100BC000860382831597B093FB02A093FA026430E8
:100BD000710560F0E7E8F3E0AAE7B2E09B012C576B
:100BE0003C4F81918D93E217F307D9F7DADD81113C
:100BF00014C08C2F1CDC11C0D83979F0809181038E
:100C0000909182039C012F5F3F4F3093820320938A
:100C10008103FC01EC57FC4FD083D0933402DF9169
:100C2000CF91089581110DC07093C5006093C400E9
:100C30001092C00098E19093C10096E09093C2009A
:100C40001EC0813069F47093CD006093CC00109287
:100C5000C80088E18093C9008EE08093CA0008959F
:100C6000823069F47093D5006093D4001092D00064
:100C700088E18093D1008EE08093D2000895833084
:100C800061F470933501609334011092300188E172
:100C9000809331018EE0809332010895811108C064
:100CA000E0ECF0E0908195FFFDCF6093C60014C0AA
:100CB000813041F4E8ECF0E0808185FFFDCF609366
:100CC000CE000895823041F4E0EDF0E0808185FFB0
:100CD000FDCF6093D6000895833039F4E0E3F1E06E
:100CE000808185FFFDCF609336010895811104C096
:100CF0008091C00080780895813021F48091C800EF
:100D000080780895823021F48091D0008078089511
:100D1000833021F4809130018078089580E0089537
:100D2000811103C08091C6000895813019F480912B
:100D3000CE000895823019F48091D6000895833052
:100D400019F480913601089580E00895A1E21A2EE9
:100D5000AA1BBB1BFD010DC0AA1FBB1FEE1FFF1F5F
:100D6000A217B307E407F50720F0A21BB30BE40BAF
:100D7000F50B661F771F881F991F1A9469F76095F6
:100D80007095809590959B01AC01BD01CF010895B0
:040D9000F894FFCF05
:100D94000D0A0042776C52656D48656C70312E30D7
:100DA400202020202020004A756E2032342032304A
:100DB40031360031353A32343A33380042776C42B6
:040DC4006F6F7400D9
:00000001FF
